{
  "_format": "hh-sol-artifact-1",
  "contractName": "Arena",
  "sourceName": "contracts/Arena.sol",
  "abi": [
    {
      "inputs": [],
      "stateMutability": "nonpayable",
      "type": "constructor"
    },
    {
      "inputs": [],
      "name": "AccessControlBadConfirmation",
      "type": "error"
    },
    {
      "inputs": [
        {
          "internalType": "address",
          "name": "account",
          "type": "address"
        },
        {
          "internalType": "bytes32",
          "name": "neededRole",
          "type": "bytes32"
        }
      ],
      "name": "AccessControlUnauthorizedAccount",
      "type": "error"
    },
    {
      "inputs": [
        {
          "internalType": "address",
          "name": "owner",
          "type": "address"
        }
      ],
      "name": "OwnableInvalidOwner",
      "type": "error"
    },
    {
      "inputs": [
        {
          "internalType": "address",
          "name": "account",
          "type": "address"
        }
      ],
      "name": "OwnableUnauthorizedAccount",
      "type": "error"
    },
    {
      "inputs": [],
      "name": "ReentrancyGuardReentrantCall",
      "type": "error"
    },
    {
      "anonymous": false,
      "inputs": [
        {
          "indexed": true,
          "internalType": "uint256",
          "name": "id",
          "type": "uint256"
        },
        {
          "indexed": false,
          "internalType": "uint256",
          "name": "startTime",
          "type": "uint256"
        },
        {
          "indexed": false,
          "internalType": "uint256",
          "name": "endTime",
          "type": "uint256"
        }
      ],
      "name": "HackathonCreated",
      "type": "event"
    },
    {
      "anonymous": false,
      "inputs": [
        {
          "indexed": true,
          "internalType": "uint256",
          "name": "id",
          "type": "uint256"
        },
        {
          "indexed": true,
          "internalType": "address",
          "name": "winner",
          "type": "address"
        },
        {
          "indexed": false,
          "internalType": "uint256",
          "name": "prize",
          "type": "uint256"
        }
      ],
      "name": "HackathonEnded",
      "type": "event"
    },
    {
      "anonymous": false,
      "inputs": [
        {
          "indexed": true,
          "internalType": "address",
          "name": "previousOwner",
          "type": "address"
        },
        {
          "indexed": true,
          "internalType": "address",
          "name": "newOwner",
          "type": "address"
        }
      ],
      "name": "OwnershipTransferred",
      "type": "event"
    },
    {
      "anonymous": false,
      "inputs": [
        {
          "indexed": true,
          "internalType": "uint256",
          "name": "id",
          "type": "uint256"
        },
        {
          "indexed": true,
          "internalType": "address",
          "name": "player",
          "type": "address"
        }
      ],
      "name": "PlayerJoined",
      "type": "event"
    },
    {
      "anonymous": false,
      "inputs": [
        {
          "indexed": true,
          "internalType": "bytes32",
          "name": "role",
          "type": "bytes32"
        },
        {
          "indexed": true,
          "internalType": "bytes32",
          "name": "previousAdminRole",
          "type": "bytes32"
        },
        {
          "indexed": true,
          "internalType": "bytes32",
          "name": "newAdminRole",
          "type": "bytes32"
        }
      ],
      "name": "RoleAdminChanged",
      "type": "event"
    },
    {
      "anonymous": false,
      "inputs": [
        {
          "indexed": true,
          "internalType": "bytes32",
          "name": "role",
          "type": "bytes32"
        },
        {
          "indexed": true,
          "internalType": "address",
          "name": "account",
          "type": "address"
        },
        {
          "indexed": true,
          "internalType": "address",
          "name": "sender",
          "type": "address"
        }
      ],
      "name": "RoleGranted",
      "type": "event"
    },
    {
      "anonymous": false,
      "inputs": [
        {
          "indexed": true,
          "internalType": "bytes32",
          "name": "role",
          "type": "bytes32"
        },
        {
          "indexed": true,
          "internalType": "address",
          "name": "account",
          "type": "address"
        },
        {
          "indexed": true,
          "internalType": "address",
          "name": "sender",
          "type": "address"
        }
      ],
      "name": "RoleRevoked",
      "type": "event"
    },
    {
      "inputs": [],
      "name": "BACKEND_ROLE",
      "outputs": [
        {
          "internalType": "bytes32",
          "name": "",
          "type": "bytes32"
        }
      ],
      "stateMutability": "view",
      "type": "function"
    },
    {
      "inputs": [],
      "name": "DEFAULT_ADMIN_ROLE",
      "outputs": [
        {
          "internalType": "bytes32",
          "name": "",
          "type": "bytes32"
        }
      ],
      "stateMutability": "view",
      "type": "function"
    },
    {
      "inputs": [
        {
          "internalType": "bytes",
          "name": "",
          "type": "bytes"
        }
      ],
      "name": "checkUpkeep",
      "outputs": [
        {
          "internalType": "bool",
          "name": "upkeepNeeded",
          "type": "bool"
        },
        {
          "internalType": "bytes",
          "name": "performData",
          "type": "bytes"
        }
      ],
      "stateMutability": "view",
      "type": "function"
    },
    {
      "inputs": [
        {
          "internalType": "uint256",
          "name": "startTime",
          "type": "uint256"
        }
      ],
      "name": "createHackathon",
      "outputs": [],
      "stateMutability": "nonpayable",
      "type": "function"
    },
    {
      "inputs": [
        {
          "internalType": "bytes",
          "name": "data",
          "type": "bytes"
        }
      ],
      "name": "fulfill",
      "outputs": [],
      "stateMutability": "nonpayable",
      "type": "function"
    },
    {
      "inputs": [
        {
          "internalType": "uint256",
          "name": "id",
          "type": "uint256"
        }
      ],
      "name": "getPlayers",
      "outputs": [
        {
          "internalType": "address[]",
          "name": "",
          "type": "address[]"
        }
      ],
      "stateMutability": "view",
      "type": "function"
    },
    {
      "inputs": [
        {
          "internalType": "bytes32",
          "name": "role",
          "type": "bytes32"
        }
      ],
      "name": "getRoleAdmin",
      "outputs": [
        {
          "internalType": "bytes32",
          "name": "",
          "type": "bytes32"
        }
      ],
      "stateMutability": "view",
      "type": "function"
    },
    {
      "inputs": [
        {
          "internalType": "bytes32",
          "name": "role",
          "type": "bytes32"
        },
        {
          "internalType": "address",
          "name": "account",
          "type": "address"
        }
      ],
      "name": "grantRole",
      "outputs": [],
      "stateMutability": "nonpayable",
      "type": "function"
    },
    {
      "inputs": [],
      "name": "hackathonCounter",
      "outputs": [
        {
          "internalType": "uint256",
          "name": "",
          "type": "uint256"
        }
      ],
      "stateMutability": "view",
      "type": "function"
    },
    {
      "inputs": [
        {
          "internalType": "uint256",
          "name": "",
          "type": "uint256"
        }
      ],
      "name": "hackathons",
      "outputs": [
        {
          "internalType": "uint256",
          "name": "id",
          "type": "uint256"
        },
        {
          "internalType": "uint256",
          "name": "startTime",
          "type": "uint256"
        },
        {
          "internalType": "uint256",
          "name": "endTime",
          "type": "uint256"
        },
        {
          "internalType": "uint256",
          "name": "prizePool",
          "type": "uint256"
        },
        {
          "internalType": "address",
          "name": "winner",
          "type": "address"
        },
        {
          "internalType": "bool",
          "name": "ended",
          "type": "bool"
        }
      ],
      "stateMutability": "view",
      "type": "function"
    },
    {
      "inputs": [
        {
          "internalType": "bytes32",
          "name": "role",
          "type": "bytes32"
        },
        {
          "internalType": "address",
          "name": "account",
          "type": "address"
        }
      ],
      "name": "hasRole",
      "outputs": [
        {
          "internalType": "bool",
          "name": "",
          "type": "bool"
        }
      ],
      "stateMutability": "view",
      "type": "function"
    },
    {
      "inputs": [
        {
          "internalType": "uint256",
          "name": "id",
          "type": "uint256"
        }
      ],
      "name": "joinHackathon",
      "outputs": [],
      "stateMutability": "payable",
      "type": "function"
    },
    {
      "inputs": [],
      "name": "owner",
      "outputs": [
        {
          "internalType": "address",
          "name": "",
          "type": "address"
        }
      ],
      "stateMutability": "view",
      "type": "function"
    },
    {
      "inputs": [
        {
          "internalType": "bytes",
          "name": "performData",
          "type": "bytes"
        }
      ],
      "name": "performUpkeep",
      "outputs": [],
      "stateMutability": "nonpayable",
      "type": "function"
    },
    {
      "inputs": [],
      "name": "renounceOwnership",
      "outputs": [],
      "stateMutability": "nonpayable",
      "type": "function"
    },
    {
      "inputs": [
        {
          "internalType": "bytes32",
          "name": "role",
          "type": "bytes32"
        },
        {
          "internalType": "address",
          "name": "callerConfirmation",
          "type": "address"
        }
      ],
      "name": "renounceRole",
      "outputs": [],
      "stateMutability": "nonpayable",
      "type": "function"
    },
    {
      "inputs": [
        {
          "internalType": "bytes32",
          "name": "role",
          "type": "bytes32"
        },
        {
          "internalType": "address",
          "name": "account",
          "type": "address"
        }
      ],
      "name": "revokeRole",
      "outputs": [],
      "stateMutability": "nonpayable",
      "type": "function"
    },
    {
      "inputs": [
        {
          "internalType": "bytes4",
          "name": "interfaceId",
          "type": "bytes4"
        }
      ],
      "name": "supportsInterface",
      "outputs": [
        {
          "internalType": "bool",
          "name": "",
          "type": "bool"
        }
      ],
      "stateMutability": "view",
      "type": "function"
    },
    {
      "inputs": [
        {
          "internalType": "address",
          "name": "newOwner",
          "type": "address"
        }
      ],
      "name": "transferOwnership",
      "outputs": [],
      "stateMutability": "nonpayable",
      "type": "function"
    }
  ],
  "bytecode": "0x608060405234801561001057600080fd5b5033600073ffffffffffffffffffffffffffffffffffffffff168173ffffffffffffffffffffffffffffffffffffffff16036100845760006040517f1e4fbdf700000000000000000000000000000000000000000000000000000000815260040161007b919061035b565b60405180910390fd5b610093816100e560201b60201c565b50600180819055506100ae6000801b336101a960201b60201c565b506100df7f25cf2b509f2a7f322675b2a5322b182f44ad2c03ac941a0af17c9b178f5d5d5f336101a960201b60201c565b50610376565b60008060009054906101000a900473ffffffffffffffffffffffffffffffffffffffff169050816000806101000a81548173ffffffffffffffffffffffffffffffffffffffff021916908373ffffffffffffffffffffffffffffffffffffffff1602179055508173ffffffffffffffffffffffffffffffffffffffff168173ffffffffffffffffffffffffffffffffffffffff167f8be0079c531659141344cd1fd0a4f28419497f9722a3daafe3b4186f6b6457e060405160405180910390a35050565b60006101bb83836102a760201b60201c565b61029c5760016002600085815260200190815260200160002060000160008473ffffffffffffffffffffffffffffffffffffffff1673ffffffffffffffffffffffffffffffffffffffff16815260200190815260200160002060006101000a81548160ff02191690831515021790555061023961031260201b60201c565b73ffffffffffffffffffffffffffffffffffffffff168273ffffffffffffffffffffffffffffffffffffffff16847f2f8788117e7eff1d82e926ec794901d17c78024a50270940304540a733656f0d60405160405180910390a4600190506102a1565b600090505b92915050565b60006002600084815260200190815260200160002060000160008373ffffffffffffffffffffffffffffffffffffffff1673ffffffffffffffffffffffffffffffffffffffff16815260200190815260200160002060009054906101000a900460ff16905092915050565b600033905090565b600073ffffffffffffffffffffffffffffffffffffffff82169050919050565b60006103458261031a565b9050919050565b6103558161033a565b82525050565b6000602082019050610370600083018461034c565b92915050565b6123c8806103856000396000f3fe6080604052600436106101145760003560e01c8063616f9533116100a057806392c2becc1161006457806392c2becc146103a1578063a217fddf146103cc578063c1077194146103f7578063d547741f14610439578063f2fde38b1461046257610114565b8063616f9533146102bb5780636e04ff0d146102e4578063715018a6146103225780638da5cb5b1461033957806391d148541461036457610114565b806336568abe116100e757806336568abe146101e557806340aca1b11461020e57806342ca6d58146102395780634585e33b14610255578063460e20491461027e57610114565b806301ffc9a714610119578063144f725e14610156578063248a9ca31461017f5780632f2ff15d146101bc575b600080fd5b34801561012557600080fd5b50610140600480360381019061013b91906115d0565b61048b565b60405161014d9190611618565b60405180910390f35b34801561016257600080fd5b5061017d60048036038101906101789190611779565b610505565b005b34801561018b57600080fd5b506101a660048036038101906101a191906117f8565b61055a565b6040516101b39190611834565b60405180910390f35b3480156101c857600080fd5b506101e360048036038101906101de91906118ad565b61057a565b005b3480156101f157600080fd5b5061020c600480360381019061020791906118ad565b61059c565b005b34801561021a57600080fd5b50610223610617565b6040516102309190611906565b60405180910390f35b610253600480360381019061024e919061194d565b61061d565b005b34801561026157600080fd5b5061027c600480360381019061027791906119da565b6107e0565b005b34801561028a57600080fd5b506102a560048036038101906102a0919061194d565b61085c565b6040516102b29190611ae5565b60405180910390f35b3480156102c757600080fd5b506102e260048036038101906102dd919061194d565b610900565b005b3480156102f057600080fd5b5061030b600480360381019061030691906119da565b610a08565b604051610319929190611b86565b60405180910390f35b34801561032e57600080fd5b50610337610abd565b005b34801561034557600080fd5b5061034e610ad1565b60405161035b9190611bc5565b60405180910390f35b34801561037057600080fd5b5061038b600480360381019061038691906118ad565b610afa565b6040516103989190611618565b60405180910390f35b3480156103ad57600080fd5b506103b6610b65565b6040516103c39190611834565b60405180910390f35b3480156103d857600080fd5b506103e1610b89565b6040516103ee9190611834565b60405180910390f35b34801561040357600080fd5b5061041e6004803603810190610419919061194d565b610b90565b60405161043096959493929190611be0565b60405180910390f35b34801561044557600080fd5b50610460600480360381019061045b91906118ad565b610bf9565b005b34801561046e57600080fd5b5061048960048036038101906104849190611c41565b610c1b565b005b60007f7965db0b000000000000000000000000000000000000000000000000000000007bffffffffffffffffffffffffffffffffffffffffffffffffffffffff1916827bffffffffffffffffffffffffffffffffffffffffffffffffffffffff191614806104fe57506104fd82610ca1565b5b9050919050565b7f25cf2b509f2a7f322675b2a5322b182f44ad2c03ac941a0af17c9b178f5d5d5f61052f81610d0b565b600080838060200190518101906105469190611cc1565b915091506105548282610d1f565b50505050565b600060026000838152602001908152602001600020600101549050919050565b6105838261055a565b61058c81610d0b565b610596838361118c565b50505050565b6105a461127e565b73ffffffffffffffffffffffffffffffffffffffff168173ffffffffffffffffffffffffffffffffffffffff1614610608576040517f6697b23200000000000000000000000000000000000000000000000000000000815260040160405180910390fd5b6106128282611286565b505050565b60035481565b806000600460008381526020019081526020016000206001015403610677576040517f08c379a000000000000000000000000000000000000000000000000000000000815260040161066e90611d5e565b60405180910390fd5b6000600460008481526020019081526020016000209050806001015442106106d4576040517f08c379a00000000000000000000000000000000000000000000000000000000081526004016106cb90611dca565b60405180910390fd5b60003411610717576040517f08c379a000000000000000000000000000000000000000000000000000000000815260040161070e90611e36565b60405180910390fd5b80600401339080600181540180825580915050600190039060005260206000200160009091909190916101000a81548173ffffffffffffffffffffffffffffffffffffffff021916908373ffffffffffffffffffffffffffffffffffffffff160217905550348160030160008282546107909190611e85565b925050819055503373ffffffffffffffffffffffffffffffffffffffff16837f87969bc7faf902221a147b95ceba76e011c5efb0339a0a8ee7a2bb82d9cfbbd660405160405180910390a3505050565b600082828101906107f1919061194d565b90506004600082815260200190815260200160002060050160149054906101000a900460ff1615610857576040517f08c379a000000000000000000000000000000000000000000000000000000000815260040161084e90611f05565b60405180910390fd5b505050565b6060600460008381526020019081526020016000206004018054806020026020016040519081016040528092919081815260200182805480156108f457602002820191906000526020600020905b8160009054906101000a900473ffffffffffffffffffffffffffffffffffffffff1673ffffffffffffffffffffffffffffffffffffffff16815260200190600101908083116108aa575b50505050509050919050565b610908611379565b42811161094a576040517f08c379a000000000000000000000000000000000000000000000000000000000815260040161094190611f71565b60405180910390fd5b60006003600081548092919061095f90611f91565b9190505590506000600460008381526020019081526020016000209050818160000181905550828160010181905550610e108361099c9190611e85565b816002018190555060008160050160146101000a81548160ff021916908315150217905550817f7cdfbd169595c3399099d55a7706cbc9424759046025f49dd74076d9a68848e5826001015483600201546040516109fb929190611fd9565b60405180910390a2505050565b6000606060005b600354811015610a9e576004600082815260200190815260200160002060050160149054906101000a900460ff16158015610a60575060046000828152602001908152602001600020600201544210155b15610a9157600181604051602001610a789190611906565b6040516020818303038152906040529250925050610ab6565b8080600101915050610a0f565b50600060405180602001604052806000815250915091505b9250929050565b610ac5611379565b610acf6000611400565b565b60008060009054906101000a900473ffffffffffffffffffffffffffffffffffffffff16905090565b60006002600084815260200190815260200160002060000160008373ffffffffffffffffffffffffffffffffffffffff1673ffffffffffffffffffffffffffffffffffffffff16815260200190815260200160002060009054906101000a900460ff16905092915050565b7f25cf2b509f2a7f322675b2a5322b182f44ad2c03ac941a0af17c9b178f5d5d5f81565b6000801b81565b60046020528060005260406000206000915090508060000154908060010154908060020154908060030154908060050160009054906101000a900473ffffffffffffffffffffffffffffffffffffffff16908060050160149054906101000a900460ff16905086565b610c028261055a565b610c0b81610d0b565b610c158383611286565b50505050565b610c23611379565b600073ffffffffffffffffffffffffffffffffffffffff168173ffffffffffffffffffffffffffffffffffffffff1603610c955760006040517f1e4fbdf7000000000000000000000000000000000000000000000000000000008152600401610c8c9190611bc5565b60405180910390fd5b610c9e81611400565b50565b60007f01ffc9a7000000000000000000000000000000000000000000000000000000007bffffffffffffffffffffffffffffffffffffffffffffffffffffffff1916827bffffffffffffffffffffffffffffffffffffffffffffffffffffffff1916149050919050565b610d1c81610d1761127e565b6114c4565b50565b610d27611515565b816000600460008381526020019081526020016000206001015403610d81576040517f08c379a0000000000000000000000000000000000000000000000000000000008152600401610d7890611d5e565b60405180910390fd5b60006004600085815260200190815260200160002090508060050160149054906101000a900460ff1615610dea576040517f08c379a0000000000000000000000000000000000000000000000000000000008152600401610de19061204e565b60405180910390fd5b600073ffffffffffffffffffffffffffffffffffffffff168373ffffffffffffffffffffffffffffffffffffffff1603610e59576040517f08c379a0000000000000000000000000000000000000000000000000000000008152600401610e50906120ba565b60405180910390fd5b6000805b8260040180549050811015610ef5578473ffffffffffffffffffffffffffffffffffffffff16836004018281548110610e9957610e986120da565b5b9060005260206000200160009054906101000a900473ffffffffffffffffffffffffffffffffffffffff1673ffffffffffffffffffffffffffffffffffffffff1603610ee85760019150610ef5565b8080600101915050610e5d565b5080610f36576040517f08c379a0000000000000000000000000000000000000000000000000000000008152600401610f2d90612155565b60405180910390fd5b6000606460468460030154610f4b9190612175565b610f5591906121e6565b90506000818460030154610f699190612217565b905060018460050160146101000a81548160ff021916908315150217905550858460050160006101000a81548173ffffffffffffffffffffffffffffffffffffffff021916908373ffffffffffffffffffffffffffffffffffffffff16021790555060008673ffffffffffffffffffffffffffffffffffffffff1683604051610ff19061227c565b60006040518083038185875af1925050503d806000811461102e576040519150601f19603f3d011682016040523d82523d6000602084013e611033565b606091505b5050905080611077576040517f08c379a000000000000000000000000000000000000000000000000000000000815260040161106e906122dd565b60405180910390fd5b6000611081610ad1565b73ffffffffffffffffffffffffffffffffffffffff16836040516110a49061227c565b60006040518083038185875af1925050503d80600081146110e1576040519150601f19603f3d011682016040523d82523d6000602084013e6110e6565b606091505b505090508061112a576040517f08c379a000000000000000000000000000000000000000000000000000000000815260040161112190612349565b60405180910390fd5b8773ffffffffffffffffffffffffffffffffffffffff16897f3e60f066db8e2de5652216d5a7d7611f5c4c029f9be23d740bea201e1f33a5c6866040516111719190611906565b60405180910390a35050505050505061118861155b565b5050565b60006111988383610afa565b6112735760016002600085815260200190815260200160002060000160008473ffffffffffffffffffffffffffffffffffffffff1673ffffffffffffffffffffffffffffffffffffffff16815260200190815260200160002060006101000a81548160ff02191690831515021790555061121061127e565b73ffffffffffffffffffffffffffffffffffffffff168273ffffffffffffffffffffffffffffffffffffffff16847f2f8788117e7eff1d82e926ec794901d17c78024a50270940304540a733656f0d60405160405180910390a460019050611278565b600090505b92915050565b600033905090565b60006112928383610afa565b1561136e5760006002600085815260200190815260200160002060000160008473ffffffffffffffffffffffffffffffffffffffff1673ffffffffffffffffffffffffffffffffffffffff16815260200190815260200160002060006101000a81548160ff02191690831515021790555061130b61127e565b73ffffffffffffffffffffffffffffffffffffffff168273ffffffffffffffffffffffffffffffffffffffff16847ff6391f5c32d9c69d2a47ea670b442974b53935d1edc7fd64eb21e047a839171b60405160405180910390a460019050611373565b600090505b92915050565b61138161127e565b73ffffffffffffffffffffffffffffffffffffffff1661139f610ad1565b73ffffffffffffffffffffffffffffffffffffffff16146113fe576113c261127e565b6040517f118cdaa70000000000000000000000000000000000000000000000000000000081526004016113f59190611bc5565b60405180910390fd5b565b60008060009054906101000a900473ffffffffffffffffffffffffffffffffffffffff169050816000806101000a81548173ffffffffffffffffffffffffffffffffffffffff021916908373ffffffffffffffffffffffffffffffffffffffff1602179055508173ffffffffffffffffffffffffffffffffffffffff168173ffffffffffffffffffffffffffffffffffffffff167f8be0079c531659141344cd1fd0a4f28419497f9722a3daafe3b4186f6b6457e060405160405180910390a35050565b6114ce8282610afa565b6115115780826040517fe2517d3f000000000000000000000000000000000000000000000000000000008152600401611508929190612369565b60405180910390fd5b5050565b600260015403611551576040517f3ee5aeb500000000000000000000000000000000000000000000000000000000815260040160405180910390fd5b6002600181905550565b60018081905550565b6000604051905090565b600080fd5b600080fd5b60007fffffffff0000000000000000000000000000000000000000000000000000000082169050919050565b6115ad81611578565b81146115b857600080fd5b50565b6000813590506115ca816115a4565b92915050565b6000602082840312156115e6576115e561156e565b5b60006115f4848285016115bb565b91505092915050565b60008115159050919050565b611612816115fd565b82525050565b600060208201905061162d6000830184611609565b92915050565b600080fd5b600080fd5b6000601f19601f8301169050919050565b7f4e487b7100000000000000000000000000000000000000000000000000000000600052604160045260246000fd5b6116868261163d565b810181811067ffffffffffffffff821117156116a5576116a461164e565b5b80604052505050565b60006116b8611564565b90506116c4828261167d565b919050565b600067ffffffffffffffff8211156116e4576116e361164e565b5b6116ed8261163d565b9050602081019050919050565b82818337600083830152505050565b600061171c611717846116c9565b6116ae565b90508281526020810184848401111561173857611737611638565b5b6117438482856116fa565b509392505050565b600082601f8301126117605761175f611633565b5b8135611770848260208601611709565b91505092915050565b60006020828403121561178f5761178e61156e565b5b600082013567ffffffffffffffff8111156117ad576117ac611573565b5b6117b98482850161174b565b91505092915050565b6000819050919050565b6117d5816117c2565b81146117e057600080fd5b50565b6000813590506117f2816117cc565b92915050565b60006020828403121561180e5761180d61156e565b5b600061181c848285016117e3565b91505092915050565b61182e816117c2565b82525050565b60006020820190506118496000830184611825565b92915050565b600073ffffffffffffffffffffffffffffffffffffffff82169050919050565b600061187a8261184f565b9050919050565b61188a8161186f565b811461189557600080fd5b50565b6000813590506118a781611881565b92915050565b600080604083850312156118c4576118c361156e565b5b60006118d2858286016117e3565b92505060206118e385828601611898565b9150509250929050565b6000819050919050565b611900816118ed565b82525050565b600060208201905061191b60008301846118f7565b92915050565b61192a816118ed565b811461193557600080fd5b50565b60008135905061194781611921565b92915050565b6000602082840312156119635761196261156e565b5b600061197184828501611938565b91505092915050565b600080fd5b600080fd5b60008083601f84011261199a57611999611633565b5b8235905067ffffffffffffffff8111156119b7576119b661197a565b5b6020830191508360018202830111156119d3576119d261197f565b5b9250929050565b600080602083850312156119f1576119f061156e565b5b600083013567ffffffffffffffff811115611a0f57611a0e611573565b5b611a1b85828601611984565b92509250509250929050565b600081519050919050565b600082825260208201905092915050565b6000819050602082019050919050565b611a5c8161186f565b82525050565b6000611a6e8383611a53565b60208301905092915050565b6000602082019050919050565b6000611a9282611a27565b611a9c8185611a32565b9350611aa783611a43565b8060005b83811015611ad8578151611abf8882611a62565b9750611aca83611a7a565b925050600181019050611aab565b5085935050505092915050565b60006020820190508181036000830152611aff8184611a87565b905092915050565b600081519050919050565b600082825260208201905092915050565b60005b83811015611b41578082015181840152602081019050611b26565b60008484015250505050565b6000611b5882611b07565b611b628185611b12565b9350611b72818560208601611b23565b611b7b8161163d565b840191505092915050565b6000604082019050611b9b6000830185611609565b8181036020830152611bad8184611b4d565b90509392505050565b611bbf8161186f565b82525050565b6000602082019050611bda6000830184611bb6565b92915050565b600060c082019050611bf560008301896118f7565b611c0260208301886118f7565b611c0f60408301876118f7565b611c1c60608301866118f7565b611c296080830185611bb6565b611c3660a0830184611609565b979650505050505050565b600060208284031215611c5757611c5661156e565b5b6000611c6584828501611898565b91505092915050565b600081519050611c7d81611921565b92915050565b6000611c8e8261184f565b9050919050565b611c9e81611c83565b8114611ca957600080fd5b50565b600081519050611cbb81611c95565b92915050565b60008060408385031215611cd857611cd761156e565b5b6000611ce685828601611c6e565b9250506020611cf785828601611cac565b9150509250929050565b600082825260208201905092915050565b7f4861636b6174686f6e20646f6573206e6f742065786973740000000000000000600082015250565b6000611d48601883611d01565b9150611d5382611d12565b602082019050919050565b60006020820190508181036000830152611d7781611d3b565b9050919050565b7f4861636b6174686f6e20616c7265616479207374617274656400000000000000600082015250565b6000611db4601983611d01565b9150611dbf82611d7e565b602082019050919050565b60006020820190508181036000830152611de381611da7565b9050919050565b7f5374616b65207265717569726564000000000000000000000000000000000000600082015250565b6000611e20600e83611d01565b9150611e2b82611dea565b602082019050919050565b60006020820190508181036000830152611e4f81611e13565b9050919050565b7f4e487b7100000000000000000000000000000000000000000000000000000000600052601160045260246000fd5b6000611e90826118ed565b9150611e9b836118ed565b9250828201905080821115611eb357611eb2611e56565b5b92915050565b7f416c726561647920656e64656400000000000000000000000000000000000000600082015250565b6000611eef600d83611d01565b9150611efa82611eb9565b602082019050919050565b60006020820190508181036000830152611f1e81611ee2565b9050919050565b7f53746172742074696d65206d75737420626520696e2066757475726500000000600082015250565b6000611f5b601c83611d01565b9150611f6682611f25565b602082019050919050565b60006020820190508181036000830152611f8a81611f4e565b9050919050565b6000611f9c826118ed565b91507fffffffffffffffffffffffffffffffffffffffffffffffffffffffffffffffff8203611fce57611fcd611e56565b5b600182019050919050565b6000604082019050611fee60008301856118f7565b611ffb60208301846118f7565b9392505050565b7f4861636b6174686f6e20616c72656164792066696e616c697a65640000000000600082015250565b6000612038601b83611d01565b915061204382612002565b602082019050919050565b600060208201905081810360008301526120678161202b565b9050919050565b7f496e76616c69642077696e6e6572206164647265737300000000000000000000600082015250565b60006120a4601683611d01565b91506120af8261206e565b602082019050919050565b600060208201905081810360008301526120d381612097565b9050919050565b7f4e487b7100000000000000000000000000000000000000000000000000000000600052603260045260246000fd5b7f57696e6e6572206d7573742062652061207061727469636970616e7400000000600082015250565b600061213f601c83611d01565b915061214a82612109565b602082019050919050565b6000602082019050818103600083015261216e81612132565b9050919050565b6000612180826118ed565b915061218b836118ed565b9250828202612199816118ed565b915082820484148315176121b0576121af611e56565b5b5092915050565b7f4e487b7100000000000000000000000000000000000000000000000000000000600052601260045260246000fd5b60006121f1826118ed565b91506121fc836118ed565b92508261220c5761220b6121b7565b5b828204905092915050565b6000612222826118ed565b915061222d836118ed565b925082820390508181111561224557612244611e56565b5b92915050565b600081905092915050565b50565b600061226660008361224b565b915061227182612256565b600082019050919050565b600061228782612259565b9150819050919050565b7f4661696c656420746f2073656e64207072697a65000000000000000000000000600082015250565b60006122c7601483611d01565b91506122d282612291565b602082019050919050565b600060208201905081810360008301526122f6816122ba565b9050919050565b7f4661696c656420746f2073656e6420706c6174666f726d206665650000000000600082015250565b6000612333601b83611d01565b915061233e826122fd565b602082019050919050565b6000602082019050818103600083015261236281612326565b9050919050565b600060408201905061237e6000830185611bb6565b61238b6020830184611825565b939250505056fea2646970667358221220981ee3e2fba92ebb40ee6a69eced7ca27c012f8f494481cb83dcf2c0f594cea564736f6c634300081c0033",
  "linkReferences": {},
  "deployedLinkReferences": {}
}