{
  "_format": "hh-sol-artifact-1",
  "contractName": "Arena",
  "sourceName": "contracts/Arena.sol",
  "abi": [
    {
      "inputs": [],
      "stateMutability": "nonpayable",
      "type": "constructor"
    },
    {
      "inputs": [],
      "name": "AccessControlBadConfirmation",
      "type": "error"
    },
    {
      "inputs": [
        {
          "internalType": "address",
          "name": "account",
          "type": "address"
        },
        {
          "internalType": "bytes32",
          "name": "neededRole",
          "type": "bytes32"
        }
      ],
      "name": "AccessControlUnauthorizedAccount",
      "type": "error"
    },
    {
      "inputs": [
        {
          "internalType": "address",
          "name": "owner",
          "type": "address"
        }
      ],
      "name": "OwnableInvalidOwner",
      "type": "error"
    },
    {
      "inputs": [
        {
          "internalType": "address",
          "name": "account",
          "type": "address"
        }
      ],
      "name": "OwnableUnauthorizedAccount",
      "type": "error"
    },
    {
      "inputs": [],
      "name": "ReentrancyGuardReentrantCall",
      "type": "error"
    },
    {
      "anonymous": false,
      "inputs": [
        {
          "indexed": true,
          "internalType": "uint256",
          "name": "id",
          "type": "uint256"
        },
        {
          "indexed": false,
          "internalType": "uint256",
          "name": "startTime",
          "type": "uint256"
        },
        {
          "indexed": false,
          "internalType": "uint256",
          "name": "endTime",
          "type": "uint256"
        }
      ],
      "name": "HackathonCreated",
      "type": "event"
    },
    {
      "anonymous": false,
      "inputs": [
        {
          "indexed": true,
          "internalType": "uint256",
          "name": "id",
          "type": "uint256"
        },
        {
          "indexed": true,
          "internalType": "address",
          "name": "winner",
          "type": "address"
        },
        {
          "indexed": false,
          "internalType": "uint256",
          "name": "prize",
          "type": "uint256"
        }
      ],
      "name": "HackathonEnded",
      "type": "event"
    },
    {
      "anonymous": false,
      "inputs": [
        {
          "indexed": true,
          "internalType": "address",
          "name": "previousOwner",
          "type": "address"
        },
        {
          "indexed": true,
          "internalType": "address",
          "name": "newOwner",
          "type": "address"
        }
      ],
      "name": "OwnershipTransferred",
      "type": "event"
    },
    {
      "anonymous": false,
      "inputs": [
        {
          "indexed": true,
          "internalType": "uint256",
          "name": "id",
          "type": "uint256"
        },
        {
          "indexed": true,
          "internalType": "address",
          "name": "player",
          "type": "address"
        }
      ],
      "name": "PlayerJoined",
      "type": "event"
    },
    {
      "anonymous": false,
      "inputs": [
        {
          "indexed": true,
          "internalType": "bytes32",
          "name": "role",
          "type": "bytes32"
        },
        {
          "indexed": true,
          "internalType": "bytes32",
          "name": "previousAdminRole",
          "type": "bytes32"
        },
        {
          "indexed": true,
          "internalType": "bytes32",
          "name": "newAdminRole",
          "type": "bytes32"
        }
      ],
      "name": "RoleAdminChanged",
      "type": "event"
    },
    {
      "anonymous": false,
      "inputs": [
        {
          "indexed": true,
          "internalType": "bytes32",
          "name": "role",
          "type": "bytes32"
        },
        {
          "indexed": true,
          "internalType": "address",
          "name": "account",
          "type": "address"
        },
        {
          "indexed": true,
          "internalType": "address",
          "name": "sender",
          "type": "address"
        }
      ],
      "name": "RoleGranted",
      "type": "event"
    },
    {
      "anonymous": false,
      "inputs": [
        {
          "indexed": true,
          "internalType": "bytes32",
          "name": "role",
          "type": "bytes32"
        },
        {
          "indexed": true,
          "internalType": "address",
          "name": "account",
          "type": "address"
        },
        {
          "indexed": true,
          "internalType": "address",
          "name": "sender",
          "type": "address"
        }
      ],
      "name": "RoleRevoked",
      "type": "event"
    },
    {
      "inputs": [],
      "name": "BACKEND_ROLE",
      "outputs": [
        {
          "internalType": "bytes32",
          "name": "",
          "type": "bytes32"
        }
      ],
      "stateMutability": "view",
      "type": "function"
    },
    {
      "inputs": [],
      "name": "DEFAULT_ADMIN_ROLE",
      "outputs": [
        {
          "internalType": "bytes32",
          "name": "",
          "type": "bytes32"
        }
      ],
      "stateMutability": "view",
      "type": "function"
    },
    {
      "inputs": [
        {
          "internalType": "bytes",
          "name": "",
          "type": "bytes"
        }
      ],
      "name": "checkUpkeep",
      "outputs": [
        {
          "internalType": "bool",
          "name": "upkeepNeeded",
          "type": "bool"
        },
        {
          "internalType": "bytes",
          "name": "performData",
          "type": "bytes"
        }
      ],
      "stateMutability": "view",
      "type": "function"
    },
    {
      "inputs": [
        {
          "internalType": "uint256",
          "name": "startTime",
          "type": "uint256"
        }
      ],
      "name": "createHackathon",
      "outputs": [],
      "stateMutability": "nonpayable",
      "type": "function"
    },
    {
      "inputs": [
        {
          "internalType": "bytes",
          "name": "data",
          "type": "bytes"
        }
      ],
      "name": "fulfill",
      "outputs": [],
      "stateMutability": "nonpayable",
      "type": "function"
    },
    {
      "inputs": [
        {
          "internalType": "uint256",
          "name": "id",
          "type": "uint256"
        }
      ],
      "name": "getPlayers",
      "outputs": [
        {
          "internalType": "address[]",
          "name": "",
          "type": "address[]"
        }
      ],
      "stateMutability": "view",
      "type": "function"
    },
    {
      "inputs": [
        {
          "internalType": "bytes32",
          "name": "role",
          "type": "bytes32"
        }
      ],
      "name": "getRoleAdmin",
      "outputs": [
        {
          "internalType": "bytes32",
          "name": "",
          "type": "bytes32"
        }
      ],
      "stateMutability": "view",
      "type": "function"
    },
    {
      "inputs": [
        {
          "internalType": "bytes32",
          "name": "role",
          "type": "bytes32"
        },
        {
          "internalType": "address",
          "name": "account",
          "type": "address"
        }
      ],
      "name": "grantRole",
      "outputs": [],
      "stateMutability": "nonpayable",
      "type": "function"
    },
    {
      "inputs": [],
      "name": "hackathonCounter",
      "outputs": [
        {
          "internalType": "uint256",
          "name": "",
          "type": "uint256"
        }
      ],
      "stateMutability": "view",
      "type": "function"
    },
    {
      "inputs": [
        {
          "internalType": "uint256",
          "name": "",
          "type": "uint256"
        }
      ],
      "name": "hackathons",
      "outputs": [
        {
          "internalType": "uint256",
          "name": "id",
          "type": "uint256"
        },
        {
          "internalType": "uint256",
          "name": "startTime",
          "type": "uint256"
        },
        {
          "internalType": "uint256",
          "name": "endTime",
          "type": "uint256"
        },
        {
          "internalType": "uint256",
          "name": "prizePool",
          "type": "uint256"
        },
        {
          "internalType": "address",
          "name": "winner",
          "type": "address"
        },
        {
          "internalType": "bool",
          "name": "ended",
          "type": "bool"
        }
      ],
      "stateMutability": "view",
      "type": "function"
    },
    {
      "inputs": [
        {
          "internalType": "bytes32",
          "name": "role",
          "type": "bytes32"
        },
        {
          "internalType": "address",
          "name": "account",
          "type": "address"
        }
      ],
      "name": "hasRole",
      "outputs": [
        {
          "internalType": "bool",
          "name": "",
          "type": "bool"
        }
      ],
      "stateMutability": "view",
      "type": "function"
    },
    {
      "inputs": [
        {
          "internalType": "uint256",
          "name": "id",
          "type": "uint256"
        }
      ],
      "name": "joinHackathon",
      "outputs": [],
      "stateMutability": "payable",
      "type": "function"
    },
    {
      "inputs": [],
      "name": "owner",
      "outputs": [
        {
          "internalType": "address",
          "name": "",
          "type": "address"
        }
      ],
      "stateMutability": "view",
      "type": "function"
    },
    {
      "inputs": [
        {
          "internalType": "bytes",
          "name": "performData",
          "type": "bytes"
        }
      ],
      "name": "performUpkeep",
      "outputs": [],
      "stateMutability": "nonpayable",
      "type": "function"
    },
    {
      "inputs": [],
      "name": "renounceOwnership",
      "outputs": [],
      "stateMutability": "nonpayable",
      "type": "function"
    },
    {
      "inputs": [
        {
          "internalType": "bytes32",
          "name": "role",
          "type": "bytes32"
        },
        {
          "internalType": "address",
          "name": "callerConfirmation",
          "type": "address"
        }
      ],
      "name": "renounceRole",
      "outputs": [],
      "stateMutability": "nonpayable",
      "type": "function"
    },
    {
      "inputs": [
        {
          "internalType": "bytes32",
          "name": "role",
          "type": "bytes32"
        },
        {
          "internalType": "address",
          "name": "account",
          "type": "address"
        }
      ],
      "name": "revokeRole",
      "outputs": [],
      "stateMutability": "nonpayable",
      "type": "function"
    },
    {
      "inputs": [
        {
          "internalType": "bytes4",
          "name": "interfaceId",
          "type": "bytes4"
        }
      ],
      "name": "supportsInterface",
      "outputs": [
        {
          "internalType": "bool",
          "name": "",
          "type": "bool"
        }
      ],
      "stateMutability": "view",
      "type": "function"
    },
    {
      "inputs": [
        {
          "internalType": "address",
          "name": "newOwner",
          "type": "address"
        }
      ],
      "name": "transferOwnership",
      "outputs": [],
      "stateMutability": "nonpayable",
      "type": "function"
    },
    {
      "stateMutability": "payable",
      "type": "receive"
    }
  ],
  "bytecode": "0x608060405234801561001057600080fd5b5033600073ffffffffffffffffffffffffffffffffffffffff168173ffffffffffffffffffffffffffffffffffffffff16036100845760006040517f1e4fbdf700000000000000000000000000000000000000000000000000000000815260040161007b919061035b565b60405180910390fd5b610093816100e560201b60201c565b50600180819055506100ae6000801b336101a960201b60201c565b506100df7f25cf2b509f2a7f322675b2a5322b182f44ad2c03ac941a0af17c9b178f5d5d5f336101a960201b60201c565b50610376565b60008060009054906101000a900473ffffffffffffffffffffffffffffffffffffffff169050816000806101000a81548173ffffffffffffffffffffffffffffffffffffffff021916908373ffffffffffffffffffffffffffffffffffffffff1602179055508173ffffffffffffffffffffffffffffffffffffffff168173ffffffffffffffffffffffffffffffffffffffff167f8be0079c531659141344cd1fd0a4f28419497f9722a3daafe3b4186f6b6457e060405160405180910390a35050565b60006101bb83836102a760201b60201c565b61029c5760016002600085815260200190815260200160002060000160008473ffffffffffffffffffffffffffffffffffffffff1673ffffffffffffffffffffffffffffffffffffffff16815260200190815260200160002060006101000a81548160ff02191690831515021790555061023961031260201b60201c565b73ffffffffffffffffffffffffffffffffffffffff168273ffffffffffffffffffffffffffffffffffffffff16847f2f8788117e7eff1d82e926ec794901d17c78024a50270940304540a733656f0d60405160405180910390a4600190506102a1565b600090505b92915050565b60006002600084815260200190815260200160002060000160008373ffffffffffffffffffffffffffffffffffffffff1673ffffffffffffffffffffffffffffffffffffffff16815260200190815260200160002060009054906101000a900460ff16905092915050565b600033905090565b600073ffffffffffffffffffffffffffffffffffffffff82169050919050565b60006103458261031a565b9050919050565b6103558161033a565b82525050565b6000602082019050610370600083018461034c565b92915050565b6123d3806103856000396000f3fe6080604052600436106101185760003560e01c8063616f9533116100a057806392c2becc1161006457806392c2becc146103ac578063a217fddf146103d7578063c107719414610402578063d547741f14610444578063f2fde38b1461046d5761011f565b8063616f9533146102c65780636e04ff0d146102ef578063715018a61461032d5780638da5cb5b1461034457806391d148541461036f5761011f565b806336568abe116100e757806336568abe146101f057806340aca1b11461021957806342ca6d58146102445780634585e33b14610260578063460e2049146102895761011f565b806301ffc9a714610124578063144f725e14610161578063248a9ca31461018a5780632f2ff15d146101c75761011f565b3661011f57005b600080fd5b34801561013057600080fd5b5061014b600480360381019061014691906115db565b610496565b6040516101589190611623565b60405180910390f35b34801561016d57600080fd5b5061018860048036038101906101839190611784565b610510565b005b34801561019657600080fd5b506101b160048036038101906101ac9190611803565b610565565b6040516101be919061183f565b60405180910390f35b3480156101d357600080fd5b506101ee60048036038101906101e991906118b8565b610585565b005b3480156101fc57600080fd5b50610217600480360381019061021291906118b8565b6105a7565b005b34801561022557600080fd5b5061022e610622565b60405161023b9190611911565b60405180910390f35b61025e60048036038101906102599190611958565b610628565b005b34801561026c57600080fd5b50610287600480360381019061028291906119e5565b6107eb565b005b34801561029557600080fd5b506102b060048036038101906102ab9190611958565b610867565b6040516102bd9190611af0565b60405180910390f35b3480156102d257600080fd5b506102ed60048036038101906102e89190611958565b61090b565b005b3480156102fb57600080fd5b50610316600480360381019061031191906119e5565b610a13565b604051610324929190611b91565b60405180910390f35b34801561033957600080fd5b50610342610ac8565b005b34801561035057600080fd5b50610359610adc565b6040516103669190611bd0565b60405180910390f35b34801561037b57600080fd5b50610396600480360381019061039191906118b8565b610b05565b6040516103a39190611623565b60405180910390f35b3480156103b857600080fd5b506103c1610b70565b6040516103ce919061183f565b60405180910390f35b3480156103e357600080fd5b506103ec610b94565b6040516103f9919061183f565b60405180910390f35b34801561040e57600080fd5b5061042960048036038101906104249190611958565b610b9b565b60405161043b96959493929190611beb565b60405180910390f35b34801561045057600080fd5b5061046b600480360381019061046691906118b8565b610c04565b005b34801561047957600080fd5b50610494600480360381019061048f9190611c4c565b610c26565b005b60007f7965db0b000000000000000000000000000000000000000000000000000000007bffffffffffffffffffffffffffffffffffffffffffffffffffffffff1916827bffffffffffffffffffffffffffffffffffffffffffffffffffffffff19161480610509575061050882610cac565b5b9050919050565b7f25cf2b509f2a7f322675b2a5322b182f44ad2c03ac941a0af17c9b178f5d5d5f61053a81610d16565b600080838060200190518101906105519190611ccc565b9150915061055f8282610d2a565b50505050565b600060026000838152602001908152602001600020600101549050919050565b61058e82610565565b61059781610d16565b6105a18383611197565b50505050565b6105af611289565b73ffffffffffffffffffffffffffffffffffffffff168173ffffffffffffffffffffffffffffffffffffffff1614610613576040517f6697b23200000000000000000000000000000000000000000000000000000000815260040160405180910390fd5b61061d8282611291565b505050565b60035481565b806000600460008381526020019081526020016000206001015403610682576040517f08c379a000000000000000000000000000000000000000000000000000000000815260040161067990611d69565b60405180910390fd5b6000600460008481526020019081526020016000209050806002015442106106df576040517f08c379a00000000000000000000000000000000000000000000000000000000081526004016106d690611dd5565b60405180910390fd5b60003411610722576040517f08c379a000000000000000000000000000000000000000000000000000000000815260040161071990611e41565b60405180910390fd5b80600401339080600181540180825580915050600190039060005260206000200160009091909190916101000a81548173ffffffffffffffffffffffffffffffffffffffff021916908373ffffffffffffffffffffffffffffffffffffffff1602179055503481600301600082825461079b9190611e90565b925050819055503373ffffffffffffffffffffffffffffffffffffffff16837f87969bc7faf902221a147b95ceba76e011c5efb0339a0a8ee7a2bb82d9cfbbd660405160405180910390a3505050565b600082828101906107fc9190611958565b90506004600082815260200190815260200160002060050160149054906101000a900460ff1615610862576040517f08c379a000000000000000000000000000000000000000000000000000000000815260040161085990611f10565b60405180910390fd5b505050565b6060600460008381526020019081526020016000206004018054806020026020016040519081016040528092919081815260200182805480156108ff57602002820191906000526020600020905b8160009054906101000a900473ffffffffffffffffffffffffffffffffffffffff1673ffffffffffffffffffffffffffffffffffffffff16815260200190600101908083116108b5575b50505050509050919050565b610913611384565b428111610955576040517f08c379a000000000000000000000000000000000000000000000000000000000815260040161094c90611f7c565b60405180910390fd5b60006003600081548092919061096a90611f9c565b9190505590506000600460008381526020019081526020016000209050818160000181905550828160010181905550610e10836109a79190611e90565b816002018190555060008160050160146101000a81548160ff021916908315150217905550817f7cdfbd169595c3399099d55a7706cbc9424759046025f49dd74076d9a68848e582600101548360020154604051610a06929190611fe4565b60405180910390a2505050565b6000606060005b600354811015610aa9576004600082815260200190815260200160002060050160149054906101000a900460ff16158015610a6b575060046000828152602001908152602001600020600201544210155b15610a9c57600181604051602001610a839190611911565b6040516020818303038152906040529250925050610ac1565b8080600101915050610a1a565b50600060405180602001604052806000815250915091505b9250929050565b610ad0611384565b610ada600061140b565b565b60008060009054906101000a900473ffffffffffffffffffffffffffffffffffffffff16905090565b60006002600084815260200190815260200160002060000160008373ffffffffffffffffffffffffffffffffffffffff1673ffffffffffffffffffffffffffffffffffffffff16815260200190815260200160002060009054906101000a900460ff16905092915050565b7f25cf2b509f2a7f322675b2a5322b182f44ad2c03ac941a0af17c9b178f5d5d5f81565b6000801b81565b60046020528060005260406000206000915090508060000154908060010154908060020154908060030154908060050160009054906101000a900473ffffffffffffffffffffffffffffffffffffffff16908060050160149054906101000a900460ff16905086565b610c0d82610565565b610c1681610d16565b610c208383611291565b50505050565b610c2e611384565b600073ffffffffffffffffffffffffffffffffffffffff168173ffffffffffffffffffffffffffffffffffffffff1603610ca05760006040517f1e4fbdf7000000000000000000000000000000000000000000000000000000008152600401610c979190611bd0565b60405180910390fd5b610ca98161140b565b50565b60007f01ffc9a7000000000000000000000000000000000000000000000000000000007bffffffffffffffffffffffffffffffffffffffffffffffffffffffff1916827bffffffffffffffffffffffffffffffffffffffffffffffffffffffff1916149050919050565b610d2781610d22611289565b6114cf565b50565b610d32611520565b816000600460008381526020019081526020016000206001015403610d8c576040517f08c379a0000000000000000000000000000000000000000000000000000000008152600401610d8390611d69565b60405180910390fd5b60006004600085815260200190815260200160002090508060050160149054906101000a900460ff1615610df5576040517f08c379a0000000000000000000000000000000000000000000000000000000008152600401610dec90612059565b60405180910390fd5b600073ffffffffffffffffffffffffffffffffffffffff168373ffffffffffffffffffffffffffffffffffffffff1603610e64576040517f08c379a0000000000000000000000000000000000000000000000000000000008152600401610e5b906120c5565b60405180910390fd5b6000805b8260040180549050811015610f00578473ffffffffffffffffffffffffffffffffffffffff16836004018281548110610ea457610ea36120e5565b5b9060005260206000200160009054906101000a900473ffffffffffffffffffffffffffffffffffffffff1673ffffffffffffffffffffffffffffffffffffffff1603610ef35760019150610f00565b8080600101915050610e68565b5080610f41576040517f08c379a0000000000000000000000000000000000000000000000000000000008152600401610f3890612160565b60405180910390fd5b6000606460468460030154610f569190612180565b610f6091906121f1565b90506000818460030154610f749190612222565b905060018460050160146101000a81548160ff021916908315150217905550858460050160006101000a81548173ffffffffffffffffffffffffffffffffffffffff021916908373ffffffffffffffffffffffffffffffffffffffff16021790555060008673ffffffffffffffffffffffffffffffffffffffff1683604051610ffc90612287565b60006040518083038185875af1925050503d8060008114611039576040519150601f19603f3d011682016040523d82523d6000602084013e61103e565b606091505b5050905080611082576040517f08c379a0000000000000000000000000000000000000000000000000000000008152600401611079906122e8565b60405180910390fd5b600061108c610adc565b73ffffffffffffffffffffffffffffffffffffffff16836040516110af90612287565b60006040518083038185875af1925050503d80600081146110ec576040519150601f19603f3d011682016040523d82523d6000602084013e6110f1565b606091505b5050905080611135576040517f08c379a000000000000000000000000000000000000000000000000000000000815260040161112c90612354565b60405180910390fd5b8773ffffffffffffffffffffffffffffffffffffffff16897f3e60f066db8e2de5652216d5a7d7611f5c4c029f9be23d740bea201e1f33a5c68660405161117c9190611911565b60405180910390a350505050505050611193611566565b5050565b60006111a38383610b05565b61127e5760016002600085815260200190815260200160002060000160008473ffffffffffffffffffffffffffffffffffffffff1673ffffffffffffffffffffffffffffffffffffffff16815260200190815260200160002060006101000a81548160ff02191690831515021790555061121b611289565b73ffffffffffffffffffffffffffffffffffffffff168273ffffffffffffffffffffffffffffffffffffffff16847f2f8788117e7eff1d82e926ec794901d17c78024a50270940304540a733656f0d60405160405180910390a460019050611283565b600090505b92915050565b600033905090565b600061129d8383610b05565b156113795760006002600085815260200190815260200160002060000160008473ffffffffffffffffffffffffffffffffffffffff1673ffffffffffffffffffffffffffffffffffffffff16815260200190815260200160002060006101000a81548160ff021916908315150217905550611316611289565b73ffffffffffffffffffffffffffffffffffffffff168273ffffffffffffffffffffffffffffffffffffffff16847ff6391f5c32d9c69d2a47ea670b442974b53935d1edc7fd64eb21e047a839171b60405160405180910390a46001905061137e565b600090505b92915050565b61138c611289565b73ffffffffffffffffffffffffffffffffffffffff166113aa610adc565b73ffffffffffffffffffffffffffffffffffffffff1614611409576113cd611289565b6040517f118cdaa70000000000000000000000000000000000000000000000000000000081526004016114009190611bd0565b60405180910390fd5b565b60008060009054906101000a900473ffffffffffffffffffffffffffffffffffffffff169050816000806101000a81548173ffffffffffffffffffffffffffffffffffffffff021916908373ffffffffffffffffffffffffffffffffffffffff1602179055508173ffffffffffffffffffffffffffffffffffffffff168173ffffffffffffffffffffffffffffffffffffffff167f8be0079c531659141344cd1fd0a4f28419497f9722a3daafe3b4186f6b6457e060405160405180910390a35050565b6114d98282610b05565b61151c5780826040517fe2517d3f000000000000000000000000000000000000000000000000000000008152600401611513929190612374565b60405180910390fd5b5050565b60026001540361155c576040517f3ee5aeb500000000000000000000000000000000000000000000000000000000815260040160405180910390fd5b6002600181905550565b60018081905550565b6000604051905090565b600080fd5b600080fd5b60007fffffffff0000000000000000000000000000000000000000000000000000000082169050919050565b6115b881611583565b81146115c357600080fd5b50565b6000813590506115d5816115af565b92915050565b6000602082840312156115f1576115f0611579565b5b60006115ff848285016115c6565b91505092915050565b60008115159050919050565b61161d81611608565b82525050565b60006020820190506116386000830184611614565b92915050565b600080fd5b600080fd5b6000601f19601f8301169050919050565b7f4e487b7100000000000000000000000000000000000000000000000000000000600052604160045260246000fd5b61169182611648565b810181811067ffffffffffffffff821117156116b0576116af611659565b5b80604052505050565b60006116c361156f565b90506116cf8282611688565b919050565b600067ffffffffffffffff8211156116ef576116ee611659565b5b6116f882611648565b9050602081019050919050565b82818337600083830152505050565b6000611727611722846116d4565b6116b9565b90508281526020810184848401111561174357611742611643565b5b61174e848285611705565b509392505050565b600082601f83011261176b5761176a61163e565b5b813561177b848260208601611714565b91505092915050565b60006020828403121561179a57611799611579565b5b600082013567ffffffffffffffff8111156117b8576117b761157e565b5b6117c484828501611756565b91505092915050565b6000819050919050565b6117e0816117cd565b81146117eb57600080fd5b50565b6000813590506117fd816117d7565b92915050565b60006020828403121561181957611818611579565b5b6000611827848285016117ee565b91505092915050565b611839816117cd565b82525050565b60006020820190506118546000830184611830565b92915050565b600073ffffffffffffffffffffffffffffffffffffffff82169050919050565b60006118858261185a565b9050919050565b6118958161187a565b81146118a057600080fd5b50565b6000813590506118b28161188c565b92915050565b600080604083850312156118cf576118ce611579565b5b60006118dd858286016117ee565b92505060206118ee858286016118a3565b9150509250929050565b6000819050919050565b61190b816118f8565b82525050565b60006020820190506119266000830184611902565b92915050565b611935816118f8565b811461194057600080fd5b50565b6000813590506119528161192c565b92915050565b60006020828403121561196e5761196d611579565b5b600061197c84828501611943565b91505092915050565b600080fd5b600080fd5b60008083601f8401126119a5576119a461163e565b5b8235905067ffffffffffffffff8111156119c2576119c1611985565b5b6020830191508360018202830111156119de576119dd61198a565b5b9250929050565b600080602083850312156119fc576119fb611579565b5b600083013567ffffffffffffffff811115611a1a57611a1961157e565b5b611a268582860161198f565b92509250509250929050565b600081519050919050565b600082825260208201905092915050565b6000819050602082019050919050565b611a678161187a565b82525050565b6000611a798383611a5e565b60208301905092915050565b6000602082019050919050565b6000611a9d82611a32565b611aa78185611a3d565b9350611ab283611a4e565b8060005b83811015611ae3578151611aca8882611a6d565b9750611ad583611a85565b925050600181019050611ab6565b5085935050505092915050565b60006020820190508181036000830152611b0a8184611a92565b905092915050565b600081519050919050565b600082825260208201905092915050565b60005b83811015611b4c578082015181840152602081019050611b31565b60008484015250505050565b6000611b6382611b12565b611b6d8185611b1d565b9350611b7d818560208601611b2e565b611b8681611648565b840191505092915050565b6000604082019050611ba66000830185611614565b8181036020830152611bb88184611b58565b90509392505050565b611bca8161187a565b82525050565b6000602082019050611be56000830184611bc1565b92915050565b600060c082019050611c006000830189611902565b611c0d6020830188611902565b611c1a6040830187611902565b611c276060830186611902565b611c346080830185611bc1565b611c4160a0830184611614565b979650505050505050565b600060208284031215611c6257611c61611579565b5b6000611c70848285016118a3565b91505092915050565b600081519050611c888161192c565b92915050565b6000611c998261185a565b9050919050565b611ca981611c8e565b8114611cb457600080fd5b50565b600081519050611cc681611ca0565b92915050565b60008060408385031215611ce357611ce2611579565b5b6000611cf185828601611c79565b9250506020611d0285828601611cb7565b9150509250929050565b600082825260208201905092915050565b7f4861636b6174686f6e20646f6573206e6f742065786973740000000000000000600082015250565b6000611d53601883611d0c565b9150611d5e82611d1d565b602082019050919050565b60006020820190508181036000830152611d8281611d46565b9050919050565b7f4861636b6174686f6e20616c726561647920656e646564000000000000000000600082015250565b6000611dbf601783611d0c565b9150611dca82611d89565b602082019050919050565b60006020820190508181036000830152611dee81611db2565b9050919050565b7f5374616b65207265717569726564000000000000000000000000000000000000600082015250565b6000611e2b600e83611d0c565b9150611e3682611df5565b602082019050919050565b60006020820190508181036000830152611e5a81611e1e565b9050919050565b7f4e487b7100000000000000000000000000000000000000000000000000000000600052601160045260246000fd5b6000611e9b826118f8565b9150611ea6836118f8565b9250828201905080821115611ebe57611ebd611e61565b5b92915050565b7f416c726561647920656e64656400000000000000000000000000000000000000600082015250565b6000611efa600d83611d0c565b9150611f0582611ec4565b602082019050919050565b60006020820190508181036000830152611f2981611eed565b9050919050565b7f53746172742074696d65206d75737420626520696e2066757475726500000000600082015250565b6000611f66601c83611d0c565b9150611f7182611f30565b602082019050919050565b60006020820190508181036000830152611f9581611f59565b9050919050565b6000611fa7826118f8565b91507fffffffffffffffffffffffffffffffffffffffffffffffffffffffffffffffff8203611fd957611fd8611e61565b5b600182019050919050565b6000604082019050611ff96000830185611902565b6120066020830184611902565b9392505050565b7f4861636b6174686f6e20616c72656164792066696e616c697a65640000000000600082015250565b6000612043601b83611d0c565b915061204e8261200d565b602082019050919050565b6000602082019050818103600083015261207281612036565b9050919050565b7f496e76616c69642077696e6e6572206164647265737300000000000000000000600082015250565b60006120af601683611d0c565b91506120ba82612079565b602082019050919050565b600060208201905081810360008301526120de816120a2565b9050919050565b7f4e487b7100000000000000000000000000000000000000000000000000000000600052603260045260246000fd5b7f57696e6e6572206d7573742062652061207061727469636970616e7400000000600082015250565b600061214a601c83611d0c565b915061215582612114565b602082019050919050565b600060208201905081810360008301526121798161213d565b9050919050565b600061218b826118f8565b9150612196836118f8565b92508282026121a4816118f8565b915082820484148315176121bb576121ba611e61565b5b5092915050565b7f4e487b7100000000000000000000000000000000000000000000000000000000600052601260045260246000fd5b60006121fc826118f8565b9150612207836118f8565b925082612217576122166121c2565b5b828204905092915050565b600061222d826118f8565b9150612238836118f8565b92508282039050818111156122505761224f611e61565b5b92915050565b600081905092915050565b50565b6000612271600083612256565b915061227c82612261565b600082019050919050565b600061229282612264565b9150819050919050565b7f4661696c656420746f2073656e64207072697a65000000000000000000000000600082015250565b60006122d2601483611d0c565b91506122dd8261229c565b602082019050919050565b60006020820190508181036000830152612301816122c5565b9050919050565b7f4661696c656420746f2073656e6420706c6174666f726d206665650000000000600082015250565b600061233e601b83611d0c565b915061234982612308565b602082019050919050565b6000602082019050818103600083015261236d81612331565b9050919050565b60006040820190506123896000830185611bc1565b6123966020830184611830565b939250505056fea2646970667358221220701d0afb0a777f9b1bb9a36a8c3ec1e93d9862d5b8bb861c7911e245758d4c3464736f6c634300081c0033",
  "linkReferences": {},
  "deployedLinkReferences": {}
}